{"abi":[{"type":"constructor","inputs":[{"name":"account","type":"address","internalType":"address"}],"stateMutability":"nonpayable"},{"type":"function","name":"DELEGATION_TYPEHASH","inputs":[],"outputs":[{"name":"","type":"bytes32","internalType":"bytes32"}],"stateMutability":"view"},{"type":"function","name":"DOMAIN_TYPEHASH","inputs":[],"outputs":[{"name":"","type":"bytes32","internalType":"bytes32"}],"stateMutability":"view"},{"type":"function","name":"allowance","inputs":[{"name":"account","type":"address","internalType":"address"},{"name":"spender","type":"address","internalType":"address"}],"outputs":[{"name":"","type":"uint256","internalType":"uint256"}],"stateMutability":"view"},{"type":"function","name":"approve","inputs":[{"name":"spender","type":"address","internalType":"address"},{"name":"rawAmount","type":"uint256","internalType":"uint256"}],"outputs":[{"name":"","type":"bool","internalType":"bool"}],"stateMutability":"nonpayable"},{"type":"function","name":"balanceOf","inputs":[{"name":"account","type":"address","internalType":"address"}],"outputs":[{"name":"","type":"uint256","internalType":"uint256"}],"stateMutability":"view"},{"type":"function","name":"checkpoints","inputs":[{"name":"","type":"address","internalType":"address"},{"name":"","type":"uint32","internalType":"uint32"}],"outputs":[{"name":"fromBlock","type":"uint32","internalType":"uint32"},{"name":"votes","type":"uint96","internalType":"uint96"}],"stateMutability":"view"},{"type":"function","name":"decimals","inputs":[],"outputs":[{"name":"","type":"uint8","internalType":"uint8"}],"stateMutability":"view"},{"type":"function","name":"delegate","inputs":[{"name":"delegatee","type":"address","internalType":"address"}],"outputs":[],"stateMutability":"nonpayable"},{"type":"function","name":"delegateBySig","inputs":[{"name":"delegatee","type":"address","internalType":"address"},{"name":"nonce","type":"uint256","internalType":"uint256"},{"name":"expiry","type":"uint256","internalType":"uint256"},{"name":"v","type":"uint8","internalType":"uint8"},{"name":"r","type":"bytes32","internalType":"bytes32"},{"name":"s","type":"bytes32","internalType":"bytes32"}],"outputs":[],"stateMutability":"nonpayable"},{"type":"function","name":"delegates","inputs":[{"name":"","type":"address","internalType":"address"}],"outputs":[{"name":"","type":"address","internalType":"address"}],"stateMutability":"view"},{"type":"function","name":"getCurrentVotes","inputs":[{"name":"account","type":"address","internalType":"address"}],"outputs":[{"name":"","type":"uint96","internalType":"uint96"}],"stateMutability":"view"},{"type":"function","name":"getPriorVotes","inputs":[{"name":"account","type":"address","internalType":"address"},{"name":"blockNumber","type":"uint256","internalType":"uint256"}],"outputs":[{"name":"","type":"uint96","internalType":"uint96"}],"stateMutability":"view"},{"type":"function","name":"name","inputs":[],"outputs":[{"name":"","type":"string","internalType":"string"}],"stateMutability":"view"},{"type":"function","name":"nonces","inputs":[{"name":"","type":"address","internalType":"address"}],"outputs":[{"name":"","type":"uint256","internalType":"uint256"}],"stateMutability":"view"},{"type":"function","name":"numCheckpoints","inputs":[{"name":"","type":"address","internalType":"address"}],"outputs":[{"name":"","type":"uint32","internalType":"uint32"}],"stateMutability":"view"},{"type":"function","name":"symbol","inputs":[],"outputs":[{"name":"","type":"string","internalType":"string"}],"stateMutability":"view"},{"type":"function","name":"totalSupply","inputs":[],"outputs":[{"name":"","type":"uint256","internalType":"uint256"}],"stateMutability":"view"},{"type":"function","name":"transfer","inputs":[{"name":"dst","type":"address","internalType":"address"},{"name":"rawAmount","type":"uint256","internalType":"uint256"}],"outputs":[{"name":"","type":"bool","internalType":"bool"}],"stateMutability":"nonpayable"},{"type":"function","name":"transferFrom","inputs":[{"name":"src","type":"address","internalType":"address"},{"name":"dst","type":"address","internalType":"address"},{"name":"rawAmount","type":"uint256","internalType":"uint256"}],"outputs":[{"name":"","type":"bool","internalType":"bool"}],"stateMutability":"nonpayable"},{"type":"event","name":"Approval","inputs":[{"name":"owner","type":"address","indexed":true,"internalType":"address"},{"name":"spender","type":"address","indexed":true,"internalType":"address"},{"name":"amount","type":"uint256","indexed":false,"internalType":"uint256"}],"anonymous":false},{"type":"event","name":"DelegateChanged","inputs":[{"name":"delegator","type":"address","indexed":true,"internalType":"address"},{"name":"fromDelegate","type":"address","indexed":true,"internalType":"address"},{"name":"toDelegate","type":"address","indexed":true,"internalType":"address"}],"anonymous":false},{"type":"event","name":"DelegateVotesChanged","inputs":[{"name":"delegate","type":"address","indexed":true,"internalType":"address"},{"name":"previousBalance","type":"uint256","indexed":false,"internalType":"uint256"},{"name":"newBalance","type":"uint256","indexed":false,"internalType":"uint256"}],"anonymous":false},{"type":"event","name":"Transfer","inputs":[{"name":"from","type":"address","indexed":true,"internalType":"address"},{"name":"to","type":"address","indexed":true,"internalType":"address"},{"name":"amount","type":"uint256","indexed":false,"internalType":"uint256"}],"anonymous":false}],"bytecode":{"object":"0x6080604052348015600e575f5ffd5b50604051611897380380611897833981016040819052602b91609e565b6001600160a01b0381165f8181526001602052604080822080546001600160601b0319166a084595161401484a00000090811790915590517fddf252ad1be2c89b69c2b068fc378daa952ba7f163c4a11628f55a4df523b3ef9160919190815260200190565b60405180910390a35060c9565b5f6020828403121560ad575f5ffd5b81516001600160a01b038116811460c2575f5ffd5b9392505050565b6117c1806100d65f395ff3fe608060405234801561000f575f5ffd5b506004361061011c575f3560e01c806370a08231116100a9578063b4b5ea571161006e578063b4b5ea5714610330578063c3cda52014610343578063dd62ed3e14610356578063e7a324dc14610395578063f1127ed8146103bc575f5ffd5b806370a0823114610282578063782d6fe1146102b35780637ecebe00146102de57806395d89b41146102fd578063a9059cbb1461031d575f5ffd5b806323b872dd116100ef57806323b872dd146101c6578063313ce567146101d9578063587cde1e146101f35780635c19a95c146102335780636fcfff4514610248575f5ffd5b806306fdde0314610120578063095ea7b31461015c57806318160ddd1461017f57806320606b701461019f575b5f5ffd5b6101466040518060400160405280600781526020016614195c9a591bdd60ca1b81525081565b6040516101539190611399565b60405180910390f35b61016f61016a3660046113e9565b610422565b6040519015158152602001610153565b6101916a084595161401484a00000081565b604051908152602001610153565b6101917f8cad95687ba82c2ce50e74f7b754645e5117c3a5bec8151c0726d5857980a86681565b61016f6101d4366004611411565b6104dd565b6101e1601281565b60405160ff9091168152602001610153565b61021b61020136600461144b565b60026020525f90815260409020546001600160a01b031681565b6040516001600160a01b039091168152602001610153565b61024661024136600461144b565b61061b565b005b61026d61025636600461144b565b60046020525f908152604090205463ffffffff1681565b60405163ffffffff9091168152602001610153565b61019161029036600461144b565b6001600160a01b03165f908152600160205260409020546001600160601b031690565b6102c66102c13660046113e9565b610628565b6040516001600160601b039091168152602001610153565b6101916102ec36600461144b565b60056020525f908152604090205481565b610146604051806040016040528060018152602001600560fc1b81525081565b61016f61032b3660046113e9565b6108ad565b6102c661033e36600461144b565b6108e8565b610246610351366004611464565b610962565b6101916103643660046114bf565b6001600160a01b039182165f908152602081815260408083209390941682529190915220546001600160601b031690565b6101917fe48329057bfd03d55e49b547132e39cffd9c1820ad7b9d4c5307691425d15adf81565b6103fe6103ca3660046114f0565b600360209081525f928352604080842090915290825290205463ffffffff811690600160201b90046001600160601b031682565b6040805163ffffffff90931683526001600160601b03909116602083015201610153565b5f5f5f19830361043a57506001600160601b0361045f565b61045c8360405180606001604052806028815260200161173960289139610c51565b90505b335f818152602081815260408083206001600160a01b0389168085529083529281902080546001600160601b0319166001600160601b03871690811790915590519081529192917f8c5be1e5ebec7d5bd14f71427d1e84f3dd0314c0f7b2291e5b200ac8c7c3b925910160405180910390a360019150505b92915050565b6001600160a01b0383165f908152602081815260408083203380855290835281842054825160608101909352602880845291936001600160601b03909116928592610532928892919061173990830139610c51565b9050866001600160a01b0316836001600160a01b03161415801561055f57506001600160601b0382811614155b15610603575f61058883836040518060600160405280604081526020016116c660409139610c7f565b6001600160a01b038981165f81815260208181526040808320948a168084529482529182902080546001600160601b0319166001600160601b0387169081179091559151918252939450919290917f8c5be1e5ebec7d5bd14f71427d1e84f3dd0314c0f7b2291e5b200ac8c7c3b925910160405180910390a3505b61060e878783610cc8565b5060019695505050505050565b6106253382610f15565b50565b5f4382106106905760405162461bcd60e51b815260206004820152602a60248201527f50657269646f743a3a6765745072696f72566f7465733a206e6f74207965742060448201526919195d195c9b5a5b995960b21b60648201526084015b60405180910390fd5b6001600160a01b0383165f9081526004602052604081205463ffffffff16908190036106bf575f9150506104d7565b6001600160a01b0384165f90815260036020526040812084916106e3600185611541565b63ffffffff908116825260208201929092526040015f20541611610753576001600160a01b0384165f90815260036020526040812090610724600184611541565b63ffffffff16815260208101919091526040015f2054600160201b90046001600160601b031691506104d79050565b6001600160a01b0384165f90815260036020908152604080832083805290915290205463ffffffff1683101561078c575f9150506104d7565b5f80610799600184611541565b90505b8163ffffffff168163ffffffff161115610869575f60026107bd8484611541565b6107c7919061155d565b6107d19083611541565b6001600160a01b0388165f90815260036020908152604080832063ffffffff858116855290835292819020815180830190925254928316808252600160201b9093046001600160601b03169181019190915291925087900361083d576020015194506104d79350505050565b805163ffffffff1687111561085457819350610862565b61085f600183611541565b92505b505061079c565b506001600160a01b0385165f90815260036020908152604080832063ffffffff909416835292905220546001600160601b03600160201b9091041691505092915050565b5f5f6108d18360405180606001604052806029815260200161160360299139610c51565b90506108de338583610cc8565b5060019392505050565b6001600160a01b0381165f9081526004602052604081205463ffffffff1680610911575f61095b565b6001600160a01b0383165f90815260036020526040812090610934600184611541565b63ffffffff16815260208101919091526040015f2054600160201b90046001600160601b03165b9392505050565b604080518082018252600781526614195c9a591bdd60ca1b60209182015281517f8cad95687ba82c2ce50e74f7b754645e5117c3a5bec8151c0726d5857980a866818301527f5e664cc57878659983993cc5123f75503012d292fbfdd25e3258a1ec23ad8ae281840152466060820152306080808301919091528351808303909101815260a0820184528051908301207fe48329057bfd03d55e49b547132e39cffd9c1820ad7b9d4c5307691425d15adf60c08301526001600160a01b038a1660e083015261010082018990526101208083018990528451808403909101815261014083019094528351939092019290922061190160f01b6101608401526101628301829052610182830181905290915f906101a20160408051601f1981840301815282825280516020918201205f80855291840180845281905260ff8a169284019290925260608301889052608083018790529092509060019060a0016020604051602081039080840390855afa158015610ae0573d5f5f3e3d5ffd5b5050604051601f1901519150506001600160a01b038116610b555760405162461bcd60e51b815260206004820152602960248201527f50657269646f743a3a64656c656761746542795369673a20696e76616c6964206044820152687369676e617475726560b81b6064820152608401610687565b6001600160a01b0381165f908152600560205260408120805491610b7883611590565b919050558914610bd85760405162461bcd60e51b815260206004820152602560248201527f50657269646f743a3a64656c656761746542795369673a20696e76616c6964206044820152646e6f6e636560d81b6064820152608401610687565b87421115610c3a5760405162461bcd60e51b815260206004820152602960248201527f50657269646f743a3a64656c656761746542795369673a207369676e617475726044820152681948195e1c1a5c995960ba1b6064820152608401610687565b610c44818b610f15565b505050505b505050505050565b5f81600160601b8410610c775760405162461bcd60e51b81526004016106879190611399565b509192915050565b5f836001600160601b0316836001600160601b031611158290610cb55760405162461bcd60e51b81526004016106879190611399565b50610cc083856115a8565b949350505050565b6001600160a01b038316610d445760405162461bcd60e51b815260206004820152603f60248201527f50657269646f743a3a5f7472616e73666572546f6b656e733a2063616e6e6f7460448201527f207472616e736665722066726f6d20746865207a65726f2061646472657373006064820152608401610687565b6001600160a01b038216610dc05760405162461bcd60e51b815260206004820152603d60248201527f50657269646f743a3a5f7472616e73666572546f6b656e733a2063616e6e6f7460448201527f207472616e7366657220746f20746865207a65726f20616464726573730000006064820152608401610687565b6001600160a01b0383165f90815260016020908152604091829020548251606081019093526039808452610e0a936001600160601b03909216928592919061168d90830139610c7f565b6001600160a01b038481165f90815260016020908152604080832080546001600160601b0319166001600160601b03968716179055928616825290829020548251606081019093526033808452610e71949190911692859290919061170690830139610f9e565b6001600160a01b038381165f8181526001602090815260409182902080546001600160601b0319166001600160601b03968716179055905193851684529092918616917fddf252ad1be2c89b69c2b068fc378daa952ba7f163c4a11628f55a4df523b3ef910160405180910390a36001600160a01b038084165f90815260026020526040808220548584168352912054610f1092918216911683610fea565b505050565b6001600160a01b038083165f81815260026020818152604080842080546001845282862054949093528787166001600160a01b031984168117909155905191909516946001600160601b039092169391928592917f3134e8a2e6d97e929a7e54011ea5485d7d196dd5f0ba4d4ef95803e8e3fc257f9190a4610f98828483610fea565b50505050565b5f80610faa84866115c7565b9050846001600160601b0316816001600160601b031610158390610fe15760405162461bcd60e51b81526004016106879190611399565b50949350505050565b816001600160a01b0316836001600160a01b03161415801561101457505f816001600160601b0316115b15610f10576001600160a01b038316156110d4576001600160a01b0383165f9081526004602052604081205463ffffffff169081611052575f61109c565b6001600160a01b0385165f90815260036020526040812090611075600185611541565b63ffffffff16815260208101919091526040015f2054600160201b90046001600160601b03165b90505f6110c282856040518060600160405280602b8152602001611761602b9139610c7f565b90506110d086848484611187565b5050505b6001600160a01b03821615610f10576001600160a01b0382165f9081526004602052604081205463ffffffff16908161110d575f611157565b6001600160a01b0384165f90815260036020526040812090611130600185611541565b63ffffffff16815260208101919091526040015f2054600160201b90046001600160601b03165b90505f61117d82856040518060600160405280602a815260200161162c602a9139610f9e565b9050610c49858484845b5f6111aa4360405180606001604052806037815260200161165660379139611377565b90505f8463ffffffff1611801561120157506001600160a01b0385165f90815260036020526040812063ffffffff8316916111e6600188611541565b63ffffffff908116825260208201929092526040015f205416145b15611273576001600160a01b0385165f908152600360205260408120839161122a600188611541565b63ffffffff16815260208101919091526040015f2080546001600160601b0392909216600160201b026fffffffffffffffffffffffff0000000019909216919091179055611322565b60408051808201825263ffffffff80841682526001600160601b0380861660208085019182526001600160a01b038b165f908152600382528681208b8616825290915294909420925183549451909116600160201b026fffffffffffffffffffffffffffffffff199094169116179190911790556112f28460016115e6565b6001600160a01b0386165f908152600460205260409020805463ffffffff191663ffffffff929092169190911790555b604080516001600160601b038086168252841660208201526001600160a01b038716917fdec2bacdd2f05b59de34da9b523dff8be42e5e38e818c82fdb0bae774387a724910160405180910390a25050505050565b5f81600160201b8410610c775760405162461bcd60e51b815260040161068791905b602081525f82518060208401528060208501604085015e5f604082850101526040601f19601f83011684010191505092915050565b80356001600160a01b03811681146113e4575f5ffd5b919050565b5f5f604083850312156113fa575f5ffd5b611403836113ce565b946020939093013593505050565b5f5f5f60608486031215611423575f5ffd5b61142c846113ce565b925061143a602085016113ce565b929592945050506040919091013590565b5f6020828403121561145b575f5ffd5b61095b826113ce565b5f5f5f5f5f5f60c08789031215611479575f5ffd5b611482876113ce565b95506020870135945060408701359350606087013560ff811681146114a5575f5ffd5b9598949750929560808101359460a0909101359350915050565b5f5f604083850312156114d0575f5ffd5b6114d9836113ce565b91506114e7602084016113ce565b90509250929050565b5f5f60408385031215611501575f5ffd5b61150a836113ce565b9150602083013563ffffffff81168114611522575f5ffd5b809150509250929050565b634e487b7160e01b5f52601160045260245ffd5b63ffffffff82811682821603908111156104d7576104d761152d565b5f63ffffffff83168061157e57634e487b7160e01b5f52601260045260245ffd5b8063ffffffff84160491505092915050565b5f600182016115a1576115a161152d565b5060010190565b6001600160601b0382811682821603908111156104d7576104d761152d565b6001600160601b0381811683821601908111156104d7576104d761152d565b63ffffffff81811683821601908111156104d7576104d761152d56fe50657269646f743a3a7472616e736665723a20616d6f756e742065786365656473203936206269747350657269646f743a3a5f6d6f7665566f7465733a20766f746520616d6f756e74206f766572666c6f777350657269646f743a3a5f7772697465436865636b706f696e743a20626c6f636b206e756d6265722065786365656473203332206269747350657269646f743a3a5f7472616e73666572546f6b656e733a207472616e7366657220616d6f756e7420657863656564732062616c616e636550657269646f743a3a7472616e7366657246726f6d3a207472616e7366657220616d6f756e742065786365656473207370656e64657220616c6c6f77616e636550657269646f743a3a5f7472616e73666572546f6b656e733a207472616e7366657220616d6f756e74206f766572666c6f777350657269646f743a3a617070726f76653a20616d6f756e742065786365656473203936206269747350657269646f743a3a5f6d6f7665566f7465733a20766f746520616d6f756e7420756e646572666c6f7773a264697066735822122079089b5704749ef3b7740fba83f11a8864988f0d8c66d1ee252a3c3e868ceadc64736f6c634300081b0033","linkReferences":{}},"methodIdentifiers":{"DELEGATION_TYPEHASH()":"e7a324dc","DOMAIN_TYPEHASH()":"20606b70","allowance(address,address)":"dd62ed3e","approve(address,uint256)":"095ea7b3","balanceOf(address)":"70a08231","checkpoints(address,uint32)":"f1127ed8","decimals()":"313ce567","delegate(address)":"5c19a95c","delegateBySig(address,uint256,uint256,uint8,bytes32,bytes32)":"c3cda520","delegates(address)":"587cde1e","getCurrentVotes(address)":"b4b5ea57","getPriorVotes(address,uint256)":"782d6fe1","name()":"06fdde03","nonces(address)":"7ecebe00","numCheckpoints(address)":"6fcfff45","symbol()":"95d89b41","totalSupply()":"18160ddd","transfer(address,uint256)":"a9059cbb","transferFrom(address,address,uint256)":"23b872dd"},"id":5}